:100000000C9431010C9462010C9462010C94620115
:100010000C9462010C9462010C9462010C946201D4
:100020000C9462010C9462010C9462010C946201C4
:100030000C9462010C9462010C9462010C946201B4
:100040000C9462010C9462010C9462010C946201A4
:100050000C9462010C9462010C9462010C9465068C
:100060000C9462010C942F060C9405060C9462010A
:100070000C9462010C9462010C9462010C94620174
:100080000C9462010C9462010C9462010C94620164
:100090000C9462010C9462010C9462010C94AF0602
:1000A0000C9462010C9462010C9462010C94620144
:1000B0000C9462010C9462010C9462010C94620134
:1000C0000C9462010C9462010C9462010C94620124
:1000D0000C9462010C9462010C9462010C94620114
:1000E0000C9462010C9416030C94DB040C94C40170
:1000F0000C94ED020C94EE040C9404030C94F002A6
:100100000C9465010C947D030C940E030C94640113
:100110000C94CA020C94D3070C94CB040C94E50203
:100120000C94F6020C9493010C9408030C94200395
:100130000C94A2010C94FC010C941C030C94490235
:100140000C9400030C94CC040C94CF020C94F50492
:100150000C94E9020C94E1020C9422050C94FA022E
:100160000C94B6010C9466010C94C7050C946405BC
:100170000C94120300002200250028002B002E0002
:100180003100340002010000050108010B010505E2
:100190000505070508080808020202020A0A0808FD
:1001A000040404040101010101010101030303032B
:1001B00003030303040707070C0C0C0C0C0C0C0CBA
:1001C0000202020206060606060606060B0B0B0BCB
:1001D0000B0B0B0B010210202008081020401020F0
:1001E00040800201020108040201010204081020FB
:1001F00040808040201008040201800402018040F9
:100200002010080402010804020101020408102061
:100210004080010204081020408000000A0B0209FF
:100220000C0D0E0807030401000000000000000090
:1002300000000000000000000000000000000000BE
:10024000000000000000121110000000000000007B
:10025000000000000000000000000000000000009E
:10026000D30711241FBECFEFD1E2DEBFCDBF00E028
:100270000CBF12E0A0E0B2E0EAE7F3E100E00BBF60
:1002800002C007900D92AC34B107D9F723E0ACE47B
:10029000B2E001C01D92A63CB207E1F711E0C1E354
:1002A000D1E000E006C021970109802FFE010E94E5
:1002B000B309C033D10780E00807A9F70E941B08E3
:1002C0000C94BB090C94000008950895AF92BF925E
:1002D000CF92DF92EF92FF920F931F93CF93DF9312
:1002E0006C017B018B01040F151FEB015E01AE1841
:1002F000BF08C017D10759F06991D601ED91FC9163
:100300000190F081E02DC6011995892B79F7C5017F
:10031000DF91CF911F910F91FF90EF90DF90CF90E1
:10032000BF90AF900895FC01538D448D252F30E090
:10033000842F90E0821B930B541710F0CF960895F2
:1003400001970895FC01918D828D981761F0A28D1F
:10035000AE0FBF2FB11D5D968C91928D9F5F9F73E5
:10036000928F90E008958FEF9FEF0895FC01918D9B
:10037000828D981731F0828DE80FF11D858D90E008
:1003800008958FEF9FEF0895FC01918D228D892FA5
:1003900090E0805C9F4F821B91098F73992708958D
:1003A00081E193E00E94C40121E0892B09F420E05F
:1003B000822F0895FC01A48DA80FB92FB11DA35A57
:1003C000BF4F2C91848D90E001968F739927848F75
:1003D000A689B7892C93A089B1898C918370806498
:1003E0008C93938D848D981306C00288F389E02D39
:1003F00080818F7D80830895EF92FF920F931F93EA
:10040000CF93DF93EC0181E0888F9B8D8C8D9813C7
:100410001AC0E889F989808185FF15C09FB7F894D3
:10042000EE89FF896083E889F9898081837080641F
:1004300080839FBF81E090E0DF91CF911F910F916A
:10044000FF90EF900895F62E0B8D10E00F5F1F4F79
:100450000F731127E02E8C8D8E110CC00FB607FC88
:10046000FACFE889F989808185FFF5CFCE010E9416
:10047000DA01F1CFEB8DEC0FFD2FF11DE35AFF4FA9
:10048000F0829FB7F8940B8FEA89FB8980818062A4
:10049000CFCFCF93DF93EC01888D8823B9F0AA8961
:1004A000BB89E889F9898C9185FD03C0808186FD2F
:1004B0000DC00FB607FCF7CF8C9185FFF2CF80817E
:1004C00085FFEDCFCE010E94DA01E9CFDF91CF9118
:1004D000089580E090E0892B29F00E94D0018111DD
:1004E0000E94000080E090E0892B49F080E090E0DD
:1004F000892B29F00E94000081110E94000080E0F9
:1005000090E0892B49F080E090E0892B29F00E944F
:10051000000081110E94000080E090E0892B49F0EA
:1005200080E090E0892B29F00E94000081110C945A
:1005300000000895282F30E0F901E65EFD4F949108
:10054000F901EC52FE4F449122573E4FF90124919C
:10055000222309F435C0992311F191509231F8F416
:10056000E92FF0E08827E854FD4F8F4F0C94B30932
:10057000E902ED02CA02E102E502CF02F002F60250
:10058000FA020003040308030E031203CF0216034A
:100590001C032003809180008F7780938000E22FDE
:1005A000F0E0EE0FFF1FEC58FE4FA591B4918FB70E
:1005B000F894EC91611148C040954E234C938FBF45
:1005C0000895809180008F7DE8CF80918000877FA3
:1005D000E4CF84B58F7784BDE2CF84B58F7DFBCF28
:1005E0008091B0008F778093B000D9CF8091B00018
:1005F0008F7DF9CF809190008F7780939000CFCF3F
:10060000809190008F7DF9CF80919000877FF5CF0A
:100610008091A0008F778093A000C1CF8091A0002F
:100620008F7DF9CF8091A000877FF5CF8091200149
:100630008F7780932001B3CF809120018F7DF9CFF8
:1006400080912001877FF5CF4E2BB8CF3FB7F8942C
:100650008091B5029091B602A091B702B091B80214
:1006600026B5A89B05C02F3F19F00196A11DB11D0D
:100670003FBFBA2FA92F982F8827BC01CD01620F49
:10068000711D811D911D42E0660F771F881F991F04
:100690004A95D1F708958F929F92AF92BF92CF92D1
:1006A000DF92EF92FF924B015C010E9426036B01E7
:1006B0007C010E9426036C197D098E099F09683E02
:1006C000734081059105A8F321E0821A9108A108E1
:1006D000B10888EEC80E83E0D81EE11CF11C81141D
:1006E0009104A104B10429F7FF90EF90DF90CF901F
:1006F000BF90AF909F908F900895089520918D02A4
:10070000260F3327331F21323105ECF42091E70205
:10071000FC0190E080E0243069F082E00895A0912F
:100720008D022191AC0143595D4FA40FB52FB11D2E
:100730002C930196861798F380918D02680F609331
:100740008D0280E0089581E008951092E70281E033
:100750008093E6021092C10261E084E10E949A0255
:1007600061E085E10E949A02E9EBF0E080818E7FF2
:10077000808380818D7F808388E48093B80085E4C6
:100780008093BC000895CF93DF9391E090936C0227
:100790008823B9F0C091B800D091BA008091BC0014
:1007A0008A7B8093BC0060E084E10E949A0260E052
:1007B00085E10E949A020E94A503D093BA00C093DB
:1007C000B800DF91CF910895CF92DF92EF92FF9220
:1007D0000F931F93CF93DF93D091100381E0D13219
:1007E00008F09CC0C0910F030E9426036B017C019E
:1007F0008091E70281116CC082E08093E70281E082
:100800008093E6028FEF8093E5021092E402D0938A
:10081000E302AFEEB2E0E3ECF2E080E0D8138DC08B
:100820001092C2028091C202CC0FC82BC093C202A8
:100830008091C102813009F084C01092C1020E94EF
:1008400026036B017C018091C2028093BB008091E2
:10085000E9029091EA02A091EB02B091EC02892B9F
:100860008A2B8B2BA1F00E9426030091E9021091A4
:10087000EA022091EB023091EC026C197D098E099D
:100880009F09061717072807390708F442C0809107
:10089000BC0083FDD8CF85EC8093BC000E9426036A
:1008A0006B017C018091E702823009F44CC0809199
:1008B000E5028F3F09F469C08091E502803209F4B6
:1008C00066C08091E502803309F463C084E026C0ED
:1008D0008091E9029091EA02A091EB02B091EC02C2
:1008E000892B8A2B8B2B09F483CF0E94260300913E
:1008F000E9021091EA022091EB023091EC026C19AE
:100900007D098E099F09061717072807390708F080
:100910006FCF8091E8020E94C30385E01092EE023F
:10092000109210031092ED02DF91CF911F910F9161
:10093000FF90EF90DF90CF9008959D9191938F5FFE
:100940006DCF85EEA9CF8091E9029091EA02A09146
:10095000EB02B091EC02892B8A2B8B2B09F4A2CFEE
:100960000E9426030091E9021091EA022091EB0215
:100970003091EC026C197D098E099F090617170743
:100980002807390708F08ECFC4CF80E0C7CF82E0B8
:10099000C5CF83E0C3CF0895E091BE028091BD0230
:1009A000E81730F4F0E0E45BFD4F808190E00895BB
:1009B0008FEF9FEF08959091BE028091BD022FEFBF
:1009C0003FEF981748F4E92FF0E0E45BFD4F2081FA
:1009D00030E09F5F9093BE02C90108958091BD02EF
:1009E0009091BE02891B990B0895CF92DF92EF92EE
:1009F000FF920F931F93CF93DF937C01CB018A016A
:100A00002091ED02222389F0EB016B01C40ED51E6B
:100A1000CC15DD0569F06991D701ED91FC9101904C
:100A2000F081E02DC7011995F3CF642F0E947E035A
:100A3000C801DF91CF911F910F91FF90EF90DF9050
:100A4000CF900895CF93DF931F92CDB7DEB7698320
:100A50002091ED022223F9F020911003203258F06A
:100A600021E030E0FC013383228390E080E00F90AE
:100A7000DF91CF9108958091EE02E82FF0E0E151EF
:100A8000FD4F998190838F5F8093EE0280931003D6
:100A900081E090E0ECCF61E0CE0101960E947E0300
:100AA000F7CFFC01248131E03093ED0220930F0356
:100AB0001092EE02109210038385682B8EEA93E069
:100AC0000E9422050C94E40390E080E008950F93C7
:100AD0001F93CF938C01C62F0E9451056C2F646029
:100AE000C8010E9451056C2F6B7FC8010E945105FF
:100AF00083EC90E00197F1F7CF911F910F9108954A
:100B00000F931F93CF93DF938C01D62FC42F607F59
:100B1000642B0E94670580E1D89FB00111246C2BE3
:100B2000C801DF91CF911F910F910C946705CF936E
:100B3000DF9300D000D01F921F92CDB7DEB798E0B0
:100B4000E0E0F2E0DE01119601900D929A95E1F756
:100B50009091C203981708F48FEF90E0880F991FC7
:100B600021E030E02C0F3D1F820F931FFC016081BC
:100B70006E5F606840E08AEB93E028960FB6F894C9
:100B8000DEBF0FBECDBFDF91CF910C94800541E059
:100B90000E94800581E090E0089585ED8093BC007F
:100BA0008091E9029091EA02A091EB02B091EC02EF
:100BB0000796A11DB11D23E0B695A795979587953A
:100BC0002A95D1F72091BC0024FD03C01092E702C2
:100BD00008954091E9025091EA026091EB02709110
:100BE000EC02452B462B472B69F30097A105B10575
:100BF00041F025E32A95F1F700000197A109B10919
:100C0000E1CF8091E8020C94C3031F920F920FB6BC
:100C10000F9211240BB60F922F933F934F935F9334
:100C20006F937F938F939F93AF93BF93EF93FF93B4
:100C300081E193E00E94DA01FF91EF91BF91AF91C2
:100C40009F918F917F916F915F914F913F912F91E4
:100C50000F900BBE0F900FBE0F901F9018951F9214
:100C60000F920FB60F9211240BB60F922F938F9302
:100C70009F93EF93FF93E0912103F09122038081F2
:100C8000E0912703F091280382FD1DC0908180919F
:100C90002A038F5F8F7320912B03821741F0E0911D
:100CA0002A03F0E0EF5EFC4F958F80932A03FF91BB
:100CB000EF919F918F912F910F900BBE0F900FBED0
:100CC0000F901F9018958081F2CF1F920F920FB650
:100CD0000F9211242F933F938F939F93AF93BF93C2
:100CE0008091B1029091B202A091B302B091B4028E
:100CF0003091B00223E0230F2D3758F50196A11D46
:100D0000B11D2093B0028093B1029093B202A093E0
:100D1000B302B093B4028091B5029091B602A09153
:100D2000B702B091B8020196A11DB11D8093B50222
:100D30009093B602A093B702B093B802BF91AF915F
:100D40009F918F913F912F910F900FBE0F901F9009
:100D5000189526E8230F0296A11DB11DD2CF1F9230
:100D60000F920FB60F9211240BB60F922F933F9351
:100D70004F935F936F937F938F939F93AF93BF93A3
:100D8000EF93FF938091B900887F803609F44DC0BE
:100D900008F040C0883209F4A9C028F5803109F470
:100DA0009DC0C8F4882309F4FBC0883009F496C0BC
:100DB000FF91EF91BF91AF919F918F917F916F9133
:100DC0005F914F913F912F910F900BBE0F900FBEEF
:100DD0000F901F901895883109F488C0803241F730
:100DE0008093E50214C0803409F49DC040F4803340
:100DF000B9F38833E9F68093E50285ECB0C080351D
:100E000009F485C0883509F496C0883489F60E94B3
:100E1000CD05CECF883909F48CC038F5883729F054
:100E200050F4883611F0803719F683E08093E7029A
:100E30001092AF0257C0883809F47BC0803919F08E
:100E4000803809F0B5CF8091AF02803208F071C0D0
:100E5000E091AF0281E08E0F8093AF028091BB00E2
:100E6000F0E0E157FD4F80833DC0803B39F0E0F476
:100E7000803A09F479C0883A09F09ACF84E08093E7
:100E8000E70210928E0210928D02E091B902F09169
:100E9000BA02199580918D0281110FC081E0809373
:100EA0008D0210926D0209C0803C09F4A6CF883CE7
:100EB00009F4A3CF883B09F07BCFE0918E0281E05B
:100EC0008E0F80938E02F0E0E359FD4F8081809376
:100ED000BB0090918E0280918D0229C08091C20248
:100EE0008093BB0085EC8093BC0062CF9091E402BC
:100EF0008091E302981758F5E091E40281E08E0FAB
:100F00008093E402F0E0ED53FD4F8081E9CFE09162
:100F1000E40281E08E0F8093E4028091BB00F0E058
:100F2000ED53FD4F80839091E4028091E302981786
:100F3000C8F285E8D8CFE091E40281E08E0F80937B
:100F4000E4028091BB00F0E0ED53FD4F808380917F
:100F5000E60281115CCF81E08093C10284EA809334
:100F6000BC001092E70224CF85EC8093BC00109265
:100F7000E7028091AF02803230F4E091AF02F0E0FE
:100F8000E157FD4F10826091AF0270E0E091BB022B
:100F9000F091BC028FE892E019951092AF0208CF51
:100FA0001092E50234CFE1E1F3E01382128288EE81
:100FB00093E0A0E0B0E084839583A683B7832CE020
:100FC00032E03183208325EC30E03587248724EC20
:100FD00030E03787268720EC30E0318B208B21EC06
:100FE00030E0338B228B22EC30E0358B248B26ECE7
:100FF00030E0378B268B118E128E138E148EEEEA14
:10100000F3E01382128284839583A683B7838EE1F3
:1010100092E091838083EAEBF3E01382128280E313
:1010200092E09183808380E2848380E1818782E003
:10103000828713860895789484B5826084BD84B5D0
:10104000816084BD85B5826085BD85B5816085BDC3
:1010500080916E00816080936E001092810080917B
:101060008100826080938100809181008160809303
:101070008100809180008160809380008091B10028
:1010800084608093B1008091B00081608093B00053
:1010900080919100826080939100809191008160A5
:1010A0008093910080919000816080939000809166
:1010B000A10082608093A1008091A1008160809353
:1010C000A1008091A00081608093A0008091210107
:1010D00082608093210180912101816080932101B0
:1010E0008091200181608093200180917A0084604A
:1010F00080937A0080917A00826080937A00809158
:101100007A00816080937A0080917A008068809371
:101110007A001092C1001092BE021092BD0210928D
:10112000EE02109210030E94A50384E691E09093D2
:10113000BA028093B90285E691E09093BC02809355
:10114000BB021092BF038091C403823018F098E074
:101150009093BF038093C20362E370E080E090E06D
:101160000E944B036091C5038AEB93E00E945105F6
:1011700068EE73E080E090E00E944B0360E38AEB4E
:1011800093E00E946705CBE4D6E4CE010197F1F726
:1011900060E38AEB93E00E9467052197F1F760E333
:1011A0008AEB93E00E94670583E592E00197F1F7EF
:1011B00060E28AEB93E00E9467056091BF03606282
:1011C00040E08AEB93E00E94800584E08093C003B6
:1011D00040E06CE08AEB93E00E94800540E061E033
:1011E0008AEB93E00E948005CBE3DFE1CE0101971B
:1011F000F1F712E01093C10340E066E08AEB93E060
:101200000E94800540E062E08AEB93E00E94800546
:10121000CE010197F1F740E061E08AEB93E00E9494
:1012200080052197F1F788E08093C50360E08AEBA1
:1012300093E00E94510580E00E9497054AE050E04B
:1012400068E372E08AEB93E00E94660181E00E940D
:10125000970547E050E063E472E08AEB93E00E9478
:1012600066011092BE021092BD020E94A50384E6A0
:1012700091E09093BA028093B90285E691E0909351
:10128000BC028093BB02E0912103F0912203108302
:10129000E0911D03F0911E031082E0911F03F09175
:1012A00020038FEC808310922903E0912503F091B5
:1012B000260386E08083E0912303F091240380815C
:1012C00080618083E0912303F09124038081886012
:1012D0008083E0912303F0912403808180688083E0
:1012E000E0912303F091240380818F7D8083C1E00E
:1012F000D7E101E010E060ED77E080E090E00E944F
:101300004B03C093ED02D0930F031092EE021092A4
:1013100010038091BF029091C0020197D1F463E263
:101320008EEA93E00E9422051092C0021092BF0242
:101330000E94E40364EF71E080E090E00E944B03C0
:1013400060E177E280E090E00E944B030E94690236
:10135000D2CF6AE28EEA93E00E9422051093C00287
:101360000093BF02E5CFEE0FFF1F881F8BBF0790D2
:0A137000F691E02D1994F894FFCFD8
:10137A00000040001400540000000000FC01660157
:10138A0093014902C401A201B6010000000022052E
:10139A00F5046405CB04EE04DB04CC040000000071
:1013AA00C705660164057D03434153412041435902
:0C13BA00453100412D47342D5332000016
:00000001FF
