:100000000C9443010C9474010C9474010C947401CD
:100010000C9474010C9474010C9474010C9474018C
:100020000C9474010C9474010C9474010C9474017C
:100030000C9474010C9474010C9474010C9474016C
:100040000C9474010C9474010C9474010C9474015C
:100050000C9474010C9474010C9474010C94700849
:100060000C9474010C943A080C9410080C947401CC
:100070000C9474010C9474010C9474010C9474012C
:100080000C9474010C9474010C9474010C9474011C
:100090000C9474010C9474010C9474010C94BA08BF
:1000A0000C9474010C9474010C9474010C947401FC
:1000B0000C9474010C9474010C9474010C947401EC
:1000C0000C9474010C9474010C9474010C947401DC
:1000D0000C9474010C9474010C9474010C947401CC
:1000E0000C9474010C9425050C94DE090C946C039B
:1000F0000C9450030C94210D0C947C050C94ED0190
:100100000C9426050C9448050C9435050C940207B4
:100110000C9476030C944A030C9496010C947A0385
:100120000C9429030C9495010C945E030C94D70352
:100130000C9470030C9424030C945A030C941E0228
:100140000C9447030C9443030C943F030C94FC0160
:100150000C943B030C9462030C9454030C94A30280
:100160000C94B0050C944F050C9468030C94560243
:100170000C948D070C94C0010C94100200000A0B23
:1001800002090C0D0E080703040100000000000026
:10019000000000000000000000000000000000005F
:1001A000000000000000000012111000000000001C
:1001B000000000000000000000000000000000003F
:1001C000000000002200250028002B002E00310036
:1001D000340002010000050108010B0100002100AC
:1001E000240027002A002D00300033000101000008
:1001F000040107010A0105050505070508080808A7
:10020000020202020A0A08080404040401010101AE
:1002100001010101030303030303030304070707A9
:100220000C0C0C0C0C0C0C0C02020202060606064E
:10023000060606060B0B0B0B0B0B0B0B010210201B
:10024000200808102040102040800201020108040C
:1002500002010102040810204080804020100804A0
:1002600002018004020180402010080402010804F9
:10027000020101020408102040800102040810203D
:100280004080DE09210D11241FBECFEFD1E2DEBF79
:10029000CDBF00E00CBF23E0AAE5B2E001C01D9293
:1002A000AE3EB207E1F712E0A0E0B2E0E8EFFEE117
:1002B00000E00BBF02C007900D92AA35B107D9F735
:1002C00011E0C2E4D1E000E006C021970109802FCF
:1002D000FE010E944C0DC134D10780E00807A9F748
:1002E0000E94A30A0C946A0F0C94000090E0FC0199
:1002F000E45CFD4F24918A509E4FFC018491882339
:1003000099F090E0880F991FFC01E452FE4FA591EF
:10031000B491FC01EE53FE4F859194918FB7F89400
:10032000EC91E22BEC938FBF08950895CF93DF9368
:10033000EC01E091AB02F091AC023097F1F09091BA
:10034000AE028091AD029817C0F090E0292F30E006
:100350002617370754F4DE01A20FB31F4C91215525
:100360003D4FD9014C939F5FF1CF1092AE02609345
:10037000AD02CB01DF91CF911994DF91CF91089518
:10038000AF92BF92CF92DF92EF92FF920F931F93A3
:10039000CF93DF936C017B018B01040F151FEB01E1
:1003A0005E01AE18BF08C017D10759F06991D60198
:1003B000ED91FC910190F081E02DC6011995892BFA
:1003C00079F7C501DF91CF911F910F91FF90EF90C9
:1003D000DF90CF90BF90AF900895FC01538D448D76
:1003E000252F30E0842F90E0821B930B541710F0E0
:1003F000CF96089501970895FC01918D828D9817ED
:1004000061F0A28DAE0FBF2FB11D5D968C91928DC4
:100410009F5F9F73928F90E008958FEF9FEF0895F5
:10042000FC01918D828D981731F0828DE80FF11DBE
:10043000858D90E008958FEF9FEF0895FC01918DD9
:10044000228D892F90E0805C9F4F821B91098F73D2
:100450009927089583E293E00E941E0221E0892BF0
:1004600009F420E0822F0895FC01A48DA80FB92F74
:10047000B11DA35ABF4F2C91848D90E001968F73CC
:100480009927848FA689B7892C93A089B1898C91EB
:10049000837080648C93938D848D981306C002883A
:1004A000F389E02D80818F7D80830895EF92FF9204
:1004B0000F931F93CF93DF93EC0181E0888F9B8D87
:1004C0008C8D98131AC0E889F989808185FF15C041
:1004D0009FB7F894EE89FF896083E889F989808164
:1004E0008370806480839FBF81E090E0DF91CF9133
:1004F0001F910F91FF90EF900895F62E0B8D10E055
:100500000F5F1F4F0F731127E02E8C8D8E110CC0C3
:100510000FB607FCFACFE889F989808185FFF5CF0E
:10052000CE010E943402F1CFEB8DEC0FFD2FF11DB7
:10053000E35AFF4FF0829FB7F8940B8FEA89FB894B
:1005400080818062CFCFCF93DF93EC01888D8823A9
:10055000B9F0AA89BB89E889F9898C9185FD03C026
:10056000808186FD0DC00FB607FCF7CF8C9185FF0B
:10057000F2CF808185FFEDCFCE010E943402E9CF1A
:10058000DF91CF91089580E090E0892B29F00E94BF
:100590002A0281110E94000080E090E0892B49F03E
:1005A00080E090E0892B29F00E94000081110E94D8
:1005B000000080E090E0892B49F080E090E0892BFA
:1005C00029F00E94000081110E94000080E090E06C
:1005D000892B49F080E090E0892B29F00E940000EF
:1005E00081110C9400000895282F30E0F901E4589F
:1005F000FE4F9491F901E45CFD4F44912A503E4F27
:10060000F9012491222309F435C0992311F1915065
:100610009231F8F4E92FF0E08827EE5EFC4F8F4F1F
:100620000C944C0D4303470324033B033F0329036E
:100630004A03500354035A035E03620368036C03C6
:100640002903700376037A03809180008F7780936B
:100650008000E22FF0E0EE0FFF1FEE53FE4FA5915A
:10066000B4918FB7F894EC91611148C040954E2336
:100670004C938FBF0895809180008F7DE8CF80914B
:100680008000877FE4CF84B58F7784BDE2CF84B5C7
:100690008F7DFBCF8091B0008F778093B000D9CF52
:1006A0008091B0008F7DF9CF809190008F778093FB
:1006B0009000CFCF809190008F7DF9CF80919000F6
:1006C000877FF5CF8091A0008F778093A000C1CF66
:1006D0008091A0008F7DF9CF8091A000877FF5CF1A
:1006E000809120018F7780932001B3CF80912001EA
:1006F0008F7DF9CF80912001877FF5CF4E2BB8CF2A
:100700003FB7F8948091A3029091A402A091A50212
:10071000B091A60226B5A89B05C02F3F19F00196FF
:10072000A11DB11D3FBFBA2FA92F982F8827BC014B
:10073000CD01620F711D811D911D42E0660F771F73
:10074000881F991F4A95D1F708958F929F92AF9273
:10075000BF92CF92DF92EF92FF924B015C010E9419
:1007600080036B017C010E9480036C197D098E0956
:100770009F09683E734081059105A8F321E0821A24
:100780009108A108B10888EEC80E83E0D81EE11CCC
:10079000F11C81149104A104B10429F7FF90EF909A
:1007A000DF90CF90BF90AF909F908F900895089565
:1007B00020917B02260F3327331F21323105ECF4C1
:1007C0002091F902FC0190E080E0243069F082E0A1
:1007D0000895A0917B022191AC01455A5D4FA40F71
:1007E000B52FB11D2C930196861798F380917B024B
:1007F000680F60937B0280E0089581E00895109275
:10080000F90281E08093F8021092D30261E084E162
:100810000E94F40261E085E10E94F402E9EBF0E05D
:1008200080818E7F808380818D7F808388E4809328
:10083000B80085E48093BC000895CF93DF9391E0E6
:1008400090935A028823B9F0C091B800D091BA00B1
:100850008091BC008A7B8093BC0060E084E10E94B0
:10086000F40260E085E10E94F4020E94FF03D0934D
:10087000BA00C093B800DF91CF910895CF92DF9274
:10088000EF92FF920F931F93CF93DF93D0912203A8
:1008900081E0D13208F09CC0C09121030E94800306
:1008A0006B017C018091F90281116CC082E0809320
:1008B000F90281E08093F8028FEF8093F7021092A3
:1008C000F602D093F502A1E0B3E0E5EDF2E080E0BE
:1008D000D8138DC01092D4028091D402CC0FC82BB3
:1008E000C093D4028091D302813009F084C0109269
:1008F000D3020E9480036B017C018091D40280931B
:10090000BB008091FB029091FC02A091FD02B0918E
:10091000FE02892B8A2B8B2BA1F00E948003009171
:10092000FB021091FC022091FD023091FE026C1935
:100930007D098E099F09061717072807390708F44C
:1009400042C08091BC0083FDD8CF85EC8093BC0071
:100950000E9480036B017C018091F902823009F4CE
:100960004CC08091F7028F3F09F469C08091F70273
:10097000803209F466C08091F702803309F463C0C5
:1009800084E026C08091FB029091FC02A091FD02C0
:10099000B091FE02892B8A2B8B2B09F483CF0E9406
:1009A00080030091FB021091FC022091FD02309126
:1009B000FE026C197D098E099F0906171707280783
:1009C000390708F06FCF8091FA020E941D0485E07C
:1009D00010920003109222031092FF02DF91CF9138
:1009E0001F910F91FF90EF90DF90CF9008959D9110
:1009F00091938F5F6DCF85EEA9CF8091FB0290918F
:100A0000FC02A091FD02B091FE02892B8A2B8B2B58
:100A100009F4A2CF0E9480030091FB021091FC0216
:100A20002091FD023091FE026C197D098E099F090B
:100A3000061717072807390708F08ECFC4CF80E0C4
:100A4000C7CF82E0C5CF83E0C3CF0895E091AE0267
:100A50008091AD02E81730F4F0E0E155FD4F808160
:100A600090E008958FEF9FEF08959091AE028091EE
:100A7000AD022FEF3FEF981748F4E92FF0E0E15572
:100A8000FD4F208130E09F5F9093AE02C901089531
:100A90008091AD029091AE02891B990B0895CF927F
:100AA000DF92EF92FF920F931F93CF93DF937C011E
:100AB000CB018A012091FF02222389F0EB016B0117
:100AC000C40ED51ECC15DD0569F06991D701ED91F5
:100AD000FC910190F081E02DC7011995F3CF642FAF
:100AE0000E94D803C801DF91CF911F910F91FF9011
:100AF000EF90DF90CF900895CF93DF931F92CDB703
:100B0000DEB769832091FF022223F9F020912203AE
:100B1000203258F021E030E0FC013383228390E062
:100B200080E00F90DF91CF91089580910003E82F2E
:100B3000F0E0EF5FFC4F998190838F5F809300031B
:100B40008093220381E090E0ECCF61E0CE0101963A
:100B50000E94D803F7CF682F80EC93E00C947C05BB
:100B600090E080E00895CF93DF93EC0160E08E8108
:100B70000E94F40261E08E810E94F40260E08E81A6
:100B80000E94F4028BE891E00197F1F7DF91CF9199
:100B90000895CF92DF92EF92FF920F931F93CF931E
:100BA000DF936C017C0187E0E80EF11CD0E0C0E02F
:100BB000062F10E0B8010C2E02C0759567950A94B7
:100BC000E2F76170F70181917F010E94F4022196A2
:100BD000C430D10579F7C601DF91CF911F910F91F4
:100BE000FF90EF90DF90CF900C94B305CF92DF92FF
:100BF000EF92FF920F931F93CF93DF93EC01F62EAA
:100C0000642F8C810E94F4028D818F3F19F060E087
:100C10000E94F4020F2D10E08F8584FF25C06E0125
:100C200087E0C80ED11CF12CE12CB8010E2C02C0BB
:100C3000759567950A94E2F76170F60181916F01ED
:100C40000E94F402FFEFEF1AFF0A88E0E816F104B1
:100C500061F7CE01DF91CF911F910F91FF90EF903F
:100C6000DF90CF900C94B305B80184E0759567953B
:100C70008A95E1F7CE010E94C9056F2DCE01DF9163
:100C8000CF911F910F91FF90EF90DF90CF900C9438
:100C9000C90540E0682F82ED93E00C94F60581E0F1
:100CA0000E9449068BE39FE10197F1F70895CF93E6
:100CB000DF93823029F49091E10398609093E103EF
:100CC0008093E5031092E60380E48093E70380E1DC
:100CD0008093E80380E58093E9038091D6030E9426
:100CE00076018091D7038F3F11F00E9476018091A9
:100CF000D8030E947601C2EDD3E09E01225D33400D
:100D00008091E10384FD0AC084E090E021962817D9
:100D100039073CF48E810E947601EFCF88E090E0A5
:100D2000F5CF8BE39DE00197F1F760E08091D6036A
:100D30000E94F40260E08091D8030E94F402809146
:100D4000D7038F3F19F060E00E94F4028091E10325
:100D500084FD34C063E082ED93E00E94C905CBE4DA
:100D6000D6E4CE010197F1F763E082ED93E00E94B3
:100D7000C9052197F1F763E082ED93E00E94C90570
:100D800083E592E00197F1F762E082ED93E00E9443
:100D9000C9058091E10380620E94490684E0809346
:100DA000E2038CE00E9449060E944F0682E0809395
:100DB000E30386E0DF91CF910C94490680620E94A4
:100DC00049068BE496E40197F1F78091E103806294
:100DD0000E94490683E592E00197F1F78091E103D3
:100DE00080620E944906D5CF9091E503891710F0E3
:100DF0008FEF890FE82FF0E0EE52FC4F8489806876
:100E00000C94490641E00E94F60581E090E00895C7
:100E1000FC0101900020E9F73197AF01481B590B05
:100E2000BC0182ED93E00C94C0018F929F92AF922F
:100E3000BF92CF92DF92EF92FF92CF93DF93CDB725
:100E4000DEB7A1970FB6F894DEBF0FBECDBF6C0121
:100E5000990FEE08FF08F7FE3EC041E06DE282ED1B
:100E600093E00E94F60522273327A9012C193D099A
:100E70004E095F0919A2CE0181967C019AE0892E64
:100E8000912CA12CB12CCA01B901A50194010E9499
:100E90002A0D605DF70162937F012115310541053F
:100EA000510589F790E080E0309719F0CF010E945A
:100EB00008070196A1960FB6F894DEBF0FBECDBF0E
:100EC000DF91CF91FF90EF90DF90CF90BF90AF90E8
:100ED0009F908F900895A701960119A2CE01819647
:100EE0007C018AE0882E912CA12CB12CCA01B90179
:100EF000A50194010E942A0D605DF70162937F01B4
:100F0000211531054105510589F790E080E03097C2
:100F100089F2CF010E940807CDCF80EC93E00E94B8
:100F200035058332B1F50E944F0680E00E94F40639
:100F300088E392E00E94080760E08EE00E94F402DD
:100F400060E08FE00E94F4021092D2021092D1026F
:100F50000E944F0680E00E94F40688E392E00E941F
:100F6000080760E08EE00E94F40260E08FE00E94DB
:100F7000F4021092D2021092D10264E670E080E096
:100F800090E00E94A50368EC70E080E090E00C9493
:100F9000A5038A32C1F785E090E09093D202809356
:100FA000D10288EC90E09093010280930002EBCF95
:100FB00085ED8093BC008091FB029091FC02A09192
:100FC000FD02B091FE020796A11DB11D23E0B6956A
:100FD000A795979587952A95D1F72091BC0024FD78
:100FE00003C01092F90208954091FB025091FC0257
:100FF0006091FD027091FE02452B462B472B69F351
:101000000097A105B10541F025E32A95F1F700000D
:101010000197A109B109E1CF8091FA020C941D0456
:101020001F920F920FB60F9211240BB60F922F93AF
:101030003F934F935F936F937F938F939F93AF9360
:10104000BF93EF93FF9383E293E00E943402FF91FA
:10105000EF91BF91AF919F918F917F916F915F9130
:101060004F913F912F910F900BBE0F900FBE0F909D
:101070001F9018951F920F920FB60F9211240BB666
:101080000F922F938F939F93EF93FF93E0913303EE
:10109000F09134038081E0913903F0913A0382FDAD
:1010A0001DC0908180913C038F5F8F7320913D0321
:1010B000821741F0E0913C03F0E0ED5DFC4F958F2D
:1010C00080933C03FF91EF919F918F912F910F900F
:1010D0000BBE0F900FBE0F901F9018958081F2CF1E
:1010E0001F920F920FB60F9211242F933F938F935D
:1010F0009F93AF93BF9380919F029091A002A09184
:10110000A102B091A20230919E0223E0230F2D375D
:1011100058F50196A11DB11D20939E0280939F0258
:101120009093A002A093A102B093A2028091A30287
:101130009091A402A091A502B091A6020196A11DD2
:10114000B11D8093A3029093A402A093A502B09333
:10115000A602BF91AF919F918F913F912F910F90D8
:101160000FBE0F901F90189526E8230F0296A11D21
:10117000B11DD2CF1F920F920FB60F9211240BB652
:101180000F922F933F934F935F936F937F938F9320
:101190009F93AF93BF93EF93FF938091B900887FA4
:1011A000803609F44DC008F040C0883209F4A9C067
:1011B00028F5803109F49DC0C8F4882309F4FBC0E8
:1011C000883009F496C0FF91EF91BF91AF919F9144
:1011D0008F917F916F915F914F913F912F910F90E0
:1011E0000BBE0F900FBE0F901F901895883109F419
:1011F00088C0803241F78093F70214C0803409F42C
:101200009DC040F48033B9F38833E9F68093F70248
:1012100085ECB0C0803509F485C0883509F496C0E6
:10122000883489F60E94D807CECF883909F48CC05B
:1012300038F5883729F050F4883611F0803719F6E0
:1012400083E08093F90210929D0257C0883809F418
:101250007BC0803919F0803809F0B5CF80919D02AC
:10126000803208F071C0E0919D0281E08E0F809382
:101270009D028091BB00F0E0E358FD4F80833DC0AC
:10128000803B39F0E0F4803A09F479C0883A09F0FB
:101290009ACF84E08093F90210927C0210927B0234
:1012A000E091A902F091AA02199580917B02811127
:1012B0000FC081E080937B0210925B0209C0803CEA
:1012C00009F4A6CF883C09F4A3CF883B09F07BCF73
:1012D000E0917C0281E08E0F80937C02F0E0E55A81
:1012E000FD4F80818093BB0090917C0280917B02B6
:1012F00029C08091D4028093BB0085EC8093BC0010
:1013000062CF9091F6028091F502981758F5E0911E
:10131000F60281E08E0F8093F602F0E0EB52FD4F73
:101320008081E9CFE091F60281E08E0F8093F60292
:101330008091BB00F0E0EB52FD4F80839091F6026C
:101340008091F5029817C8F285E8D8CFE091F602AF
:1013500081E08E0F8093F6028091BB00F0E0EB52AB
:10136000FD4F80838091F80281115CCF81E08093F2
:10137000D30284EA8093BC001092F90224CF85EC5A
:101380008093BC001092F90280919D02803230F46B
:10139000E0919D02F0E0E358FD4F108260919D02C4
:1013A00070E0E091A702F091A8028DE792E0199514
:1013B00010929D0208CF1092F70234CF10922603AC
:1013C0001092250388EE93E0A0E0B0E0809327031D
:1013D00090932803A0932903B0932A032CE032E0D2
:1013E000309324032093230325EC30E03093300323
:1013F00020932F0324EC30E0309332032093310309
:1014000020EC30E0309334032093330321EC30E0C0
:10141000309336032093350322EC30E030933803C9
:101420002093370326EC30E030933A0320933903BE
:1014300010923C0310923D0310923E0310923F0322
:101440001092C3031092C2038093C4039093C50308
:10145000A093C603B093C7038EE192E09093C103BB
:101460008093C0031092D5031092D40380E392E0DE
:101470009093D3038093D2038AE08093D60389E0CC
:101480008093D70388E08093D80385E08093D903C5
:1014900084E08093DA0383E08093DB0382E080932F
:1014A000DC031092DD031092DE031092DF03109232
:1014B000E0031092E10381E00E9457061092CD03F1
:1014C0001092CC031092CF031092CE031092D1034E
:1014D0001092D00361E070E090E080E00E94790E0D
:1014E0000097E1F09093CD038093CC031092CF034B
:1014F0001092CE032091D0033091D103232B11F40D
:10150000FC0110821092D1031092D0036FE472E0BC
:101510008091CC039091CD030C94630F8091CC0308
:101520009091CD03009711F00E94F00D1092CD0321
:101530001092CC031092D1031092D0031092CF03DB
:101540001092CE030895789484B5826084BD84B5EA
:10155000816084BD85B5826085BD85B5816085BDAE
:1015600080916E00816080936E0010928100809166
:1015700081008260809381008091810081608093EE
:101580008100809180008160809380008091B10013
:1015900084608093B1008091B00081608093B0003E
:1015A0008091910082608093910080919100816090
:1015B0008093910080919000816080939000809151
:1015C000A10082608093A1008091A100816080933E
:1015D000A1008091A00081608093A00080912101F2
:1015E000826080932101809121018160809321019B
:1015F0008091200181608093200180917A00846035
:1016000080937A0080917A00826080937A00809142
:101610007A00816080937A0080917A00806880935C
:101620007A001092C10082E00E94570680E00E947A
:10163000F40681E492E00E9408071092AE02109234
:10164000AD020E94FF0385E991E09093AA02809386
:10165000A90286E991E09093A8028093A7028EE206
:101660008093BA008DE897E09093AC028093AB0230
:10167000C1E0C093FF0288E480932103109200032D
:1016800010922203E0913303F091340382E08083CF
:10169000E0912F03F09130031082E0913103F0913B
:1016A00032038FEC808310923B03E0913703F0917B
:1016B000380386E08083E0913503F0913603808122
:1016C00080618083E0913503F091360380818860EA
:1016D0008083E0913503F0913603808180688083B8
:1016E000E0913503F091360380818F7D80838CEA11
:1016F00090E00E94AB0582E090E00E94AB050E9462
:101700003E04C093FF02109200031092220382E471
:101710009AE00E94AB0589E190E00E94AB0590E061
:1017200080E00E94AB050E943E04C093FF0210922D
:101730000003109222038EEE90E00E94AB050E94FF
:101740003E048EE00E9476018FE00E94760188E4DC
:10175000982E03E010E092E0E92EF12CCC24C39403
:10176000D12CAA24AA94D5EE35ECB32E8091D102C7
:101770009091D202892B09F44EC164E670E080E0BA
:1017800090E00E94A503C093FF0290922103109263
:101790000003109222038AEA90E00E94AB050E94A7
:1017A0003E040E9480032B013C018091F9028111CB
:1017B00060C0C093F902C093F802A092F7021092A1
:1017C000F6021092F502C093D4028091D40280698F
:1017D0008093D4028091D302813009F0CAC0109264
:1017E000D3020E9480032B013C018091D40280939C
:1017F000BB008091FB029091FC02A091FD02B09190
:10180000FE02892B8A2B8B2BA1F00E948003209152
:10181000FB023091FC024091FD025091FE026419DE
:10182000750986099709261737074807590708F4E5
:1018300041C08091BC0083FDD8CFB092BC000E9413
:1018400080032B013C018091F902813009F494C09E
:101850008091F6028111B2C08091F602A5EDB2E04E
:10186000EFEAF2E090E0981751F12D9121939F5FFC
:10187000FACF8091FB029091FC02A091FD02B09101
:10188000FE02892B8A2B8B2B09F48FCF0E948003B9
:101890002091FB023091FC024091FD025091FE022A
:1018A00064197509860997092617370748075907E4
:1018B00008F07BCF8091FA020E941D0480E0109214
:1018C000AE028093AD0280EC93E00E9435059093C8
:1018D000D0028093CF020E944F0680E00E94F4065F
:1018E00089E492E00E9408078091CF029091D00293
:1018F0000E94150741E06FED82ED93E00E94F6052E
:1019000080E592E00E9408078091CF029091D0027A
:101910002091000230910102833191050CF050C0FA
:10192000D092D202C092D1022130310541F060E064
:101930008EE00E94F40260E08FE00E94F402D092F8
:101940000102C092000281E00E94F40682E592E06A
:101950000E9408078091D1029091D2020E9415073F
:1019600064E670E080E090E00E94A5030E94C3025C
:10197000FDCED093BC0063CF8091FB029091FC021E
:10198000A091FD02B091FE02892B8A2B8B2B09F4CA
:101990005ACF0E9480032091FB023091FC024091BB
:1019A000FD025091FE0264197509860997092617F0
:1019B00037074807590708F046CF7CCF81E04ECF64
:1019C00043970697A0F4F092D202E092D10222301F
:1019D000310541F061E08EE00E94F40260E08FE0AA
:1019E0000E94F402F0920102E0920002ACCF109348
:1019F000D2020093D1022330310541F061E08EE044
:101A00000E94F40261E08FE00E94F4021093010250
:101A10000093000298CF0E944F0680E00E94F406D7
:101A200088E392E00E94080760E08EE00E94F402E2
:101A300060E08FE00E94F4026CE271E080E090E0F0
:101A400093CF8091CC039091CD03009711F00C942B
:101A5000F00D0895A1E21A2EAA1BBB1BFD010DC0BB
:101A6000AA1FBB1FEE1FFF1FA217B307E407F5074E
:101A700020F0A21BB30BE40BF50B661F771F881F2A
:101A8000991F1A9469F760957095809590959B01C0
:101A9000AC01BD01CF010895EE0FFF1F881F8BBF62
:101AA0000790F691E02D19940F931F93CF93DF9336
:101AB0008230910510F482E090E0E091EC03F09127
:101AC000ED0330E020E0B0E0A0E0309799F421157C
:101AD000310509F44AC0281B390B24303105D8F5EB
:101AE0008A819B816115710589F1FB019383828352
:101AF000FE0111C0408151810281138148175907AD
:101B0000E0F04817590799F4109761F012960C937A
:101B1000129713961C933296CF01DF91CF911F91AC
:101B20000F9108950093EC031093ED03F4CF21156A
:101B3000310551F04217530738F0A901DB019A0132
:101B4000BD01DF01F801C1CFEF01F9CF9093ED03A3
:101B50008093EC03CDCFFE01E20FF31F81939193AD
:101B60002250310939832883D7CF2091EA0330915D
:101B7000EB03232B41F420910402309105023093B2
:101B8000EB032093EA032091020230910302211516
:101B9000310541F42DB73EB740910602509107023E
:101BA000241B350BE091EA03F091EB03E217F307F6
:101BB000A0F42E1B3F0B2817390778F0AC014E5FBD
:101BC0005F4F2417350748F04E0F5F1F5093EB030C
:101BD0004093EA03819391939FCFF0E0E0E09CCFA4
:101BE000CF93DF930097E9F0FC01329713821282C2
:101BF000A091EC03B091ED03ED0130E020E01097EF
:101C0000A1F420813181820F931F2091EA0330914A
:101C1000EB032817390709F061C0F093EB03E09359
:101C2000EA03DF91CF910895EA01CE17DF07E8F5C7
:101C30004A815B819E0141155105B1F7E901FB83A2
:101C4000EA8349915991C40FD51FEC17FD0761F440
:101C5000808191810296840F951FE9019983888381
:101C6000828193819B838A83F0E0E0E012968D91DC
:101C70009C9113970097B9F52D913C911197CD0147
:101C80000296820F931F2091EA033091EB032817ED
:101C9000390739F6309751F51092ED031092EC03A5
:101CA000B093EB03A093EA03BCCFD383C2834081FC
:101CB0005181840F951FC817D90761F44E5F5F4F9C
:101CC00088819981480F591F518340838A819B8164
:101CD000938382832115310509F0B0CFF093ED0392
:101CE000E093EC039ECFFD01DC01C0CF1382128292
:101CF000D7CF4F925F926F927F928F929F92AF92C7
:101D0000BF92CF92DF92EF92FF920F931F93CF93E8
:101D1000DF938C01009799F4CB01DF91CF911F9154
:101D20000F91FF90EF90DF90CF90BF90AF909F907A
:101D30008F907F906F905F904F900C94540DFC01AA
:101D4000E60FF71F9C0122503109E217F30708F450
:101D5000AEC0D901CD91DC911197C617D70720F1FC
:101D6000C530D10578F0CE0104978617970750F05B
:101D7000C61BD70B2297C193D1936D937C93CF0150
:101D80000E94F00DC801DF91CF911F910F91FF903C
:101D9000EF90DF90CF90BF90AF909F908F907F900B
:101DA0006F905F904F9008955B01AC1ABD0A4C0193
:101DB0008C0E9D1EA091EC03B091ED03512C412C93
:101DC000F12CE12C109731F58091EA039091EB030F
:101DD0008815990509F05CC04616570608F058C0EA
:101DE0008091020290910302009741F48DB79EB753
:101DF0004091060250910702841B950BE817F907E2
:101E000008F055C0F093EB03E093EA03F901718306
:101E10006083B8CF8D919C91119712966C90129718
:101E200013967C901397A815B90559F56C0142E0FB
:101E3000C40ED11CCA14DB0420F1AC014A195B09A1
:101E4000DA011296159780F0628273825183408383
:101E5000D9016D937C93E114F10471F0D7011396CD
:101E6000FC93EE9312978ECF22968C0F9D1FF90153
:101E700091838083F301EFCFF093ED03E093EC03C4
:101E800081CF4816590608F42C017D01D3019ACF61
:101E9000CB010E94540D7C01009749F0AE01B801BE
:101EA0000E945A0FC8010E94F00D87016BCF10E00D
:101EB00000E068CFFB01DC0102C001900D924150AF
:101EC0005040D8F70895FB01DC0101900D920020ED
:101ED000E1F7089511E0C2E4D1E000E006C0802FF0
:101EE000FE010E944C0D2196011DC334D10780E0F4
:081EF0000807A9F7F894FFCFE1
:101EF80001000000EE038000000000005602C0014F
:101F0800ED01A3021E02FC011002000000007C0586
:101F18004F05B005250548053505260500000000D4
:101F28000207C001B005D7034170616761646F2083
:101F3800004170616761646F0054454D503A20005C
:0A1F480043004E6976656C3A2000F4
:00000001FF
