:100000000C9454010C9485010C9485010C94850189
:100010000C9485010C9485010C9485010C94850148
:100020000C9485010C9485010C9485010C94850138
:100030000C9485010C9485010C9485010C94850128
:100040000C9485010C9485010C9485010C94850118
:100050000C9485010C9485010C9485010C94010885
:100060000C9485010C94CB070C94A1070C9485018A
:100070000C9485010C9485010C9485010C948501E8
:100080000C9485010C9485010C9485010C948501D8
:100090000C9485010C9485010C9485010C944B08FB
:1000A0000C9485010C9485010C9485010C948501B8
:1000B0000C9485010C9485010C9485010C948501A8
:1000C0000C9485010C9485010C9485010C94850198
:1000D0000C9485010C9485010C9485010C94850188
:1000E0000C9485010C948D030C9451060C9493038D
:1000F0000C941D060C94B2020C94AB090C9483036F
:100100000C94AC040C94AE030C9449020C947A0247
:100110000C94FF0D0C9497060C9451040C948903D5
:100120000C9478030C94FA050C947C030C949703BC
:100130000C9458020C9406070C9474030C94FF0260
:100140000C94A1030C94A9030C941B020C94A5031A
:100150000C940A060C94FB050C94E0030C948003A9
:100160000C941A020C9424060C94AF030C949B0379
:100170000C94B3030C941C020C946C020C941104A8
:100180000C946E0300002100240027002A002D009B
:100190003000330001010000040107010A010000E2
:1001A0002200250028002B002E003100340002011F
:1001B0000000050108010B010000200023002600BB
:1001C00029002C002F00320000010000030106016D
:1001D00009010505050507050808080802020202CD
:1001E0000A0A0808040404040101010101010101D3
:1001F0000303030303030303040707070C0C0C0C9E
:100200000C0C0C0C02020202060606060606060686
:100210000B0B0B0B0B0B0B0B010210202008081013
:100220002040102040800201020108040201010266
:10023000040810204080804020100804020180043F
:10024000020180402010080402010804020101029A
:1002500004081020408001020408102040800000A3
:100260000A0B02090C0D0E08070304010000000030
:10027000000000000000000000000000000000007E
:10028000000000000000000000001211100000003B
:10029000000000000000000000000000000000005E
:1002A00000000000AB09FF0D11241FBECFEFD1E20B
:1002B000DEBFCDBF00E00CBF24E0AEE9B2E001C07C
:1002C0001D92A739B207E1F712E0A0E0B2E0E2E93F
:1002D000F0E200E00BBF02C007900D92AE39B1070B
:1002E000D9F711E0C3E5D1E000E006C0219701098C
:1002F000802FFE010E94100EC235D10780E0080752
:10030000A9F70E946C0A0C9437100C94000096E038
:10031000899FD0011124AC5DBB4F90967C936E9366
:100320005F9791E091969C939197E0919104F09161
:10033000920490919004992339F0309751F08111F3
:1003400008C0809140041994309719F05C968C9104
:10035000FACF0895CF92DF92EF92FF920F931F93FF
:1003600096E0899FF0011124EC5DFB4F11A2278DCF
:1003700030A12130310551F178F02230310509F4F6
:1003800051C02330310509F452C01F910F91FF90E5
:10039000EF90DF90CF9008956623B9F361E070E0AD
:1003A0000E9487012FB7F89480910F03909110035A
:1003B000A0911103B09112032FBF80937C049093FE
:1003C0007D04A0937E04B0937F04DFCF9FB7F894A1
:1003D000C0900F03D0901003E0901103F09012032F
:1003E0009FBF00917C0410917D0420917E04309188
:1003F0007F04C01AD10AE20AF30A00918E04109118
:100400008F0430E020E00C151D052E053F0550F44B
:1004100062E070E01F910F91FF90EF90DF90CF901E
:100420000C9487016111B1CF63E070E0F3CF70E00D
:1004300060E0F0CF08950895AF92BF92CF92DF921F
:10044000EF92FF920F931F93CF93DF936C017B0189
:100450008B01040F151FEB015E01AE18BF08C0171A
:10046000D10759F06991D601ED91FC910190F0818D
:10047000E02DC6011995892B79F7C501DF91CF9140
:100480001F910F91FF90EF90DF90CF90BF90AF90B2
:100490000895FC01538D448D252F30E0842F90E08A
:1004A000821B930B541710F0CF960895019708956F
:1004B000FC01918D828D981761F0A28DAE0FBF2F38
:1004C000B11D5D968C91928D9F5F9F73928F90E08E
:1004D00008958FEF9FEF0895FC01918D828D9817FD
:1004E00031F0828DE80FF11D858D90E008958FEF3A
:1004F0009FEF0895FC01918D228D892F90E0805C03
:100500009F4F821B91098F739927089583E693E08B
:100510000E947A0221E0892B09F420E0822F0895BD
:10052000FC01A48DA80FB92FB11DA35ABF4F2C9168
:10053000848D90E001968F739927848FA689B7895F
:100540002C93A089B1898C91837080648C93938D56
:10055000848D981306C00288F389E02D80818F7DF9
:1005600080830895EF92FF920F931F93CF93DF93B1
:10057000EC0181E0888F9B8D8C8D98131AC0E889DF
:10058000F989808185FF15C09FB7F894EE89FF89AE
:100590006083E889F98980818370806480839FBF4C
:1005A00081E090E0DF91CF911F910F91FF90EF904C
:1005B0000895F62E0B8D10E00F5F1F4F0F7311275C
:1005C000E02E8C8D8E110CC00FB607FCFACFE88997
:1005D000F989808185FFF5CFCE010E949002F1CF8D
:1005E000EB8DEC0FFD2FF11DE35AFF4FF0829FB70B
:1005F000F8940B8FEA89FB8980818062CFCFCF93FB
:10060000DF93EC01888D8823B9F0AA89BB89E8893A
:10061000F9898C9185FD03C0808186FD0DC00FB6E0
:1006200007FCF7CF8C9185FFF2CF808185FFEDCF5E
:10063000CE010E949002E9CFDF91CF91089580E032
:1006400090E0892B29F00E94860281110E9400000F
:1006500080E090E0892B49F080E090E0892B29F040
:100660000E94000081110E94000080E090E0892B30
:1006700049F080E090E0892B29F00E940000811170
:100680000E94000080E090E0892B49F080E090E03B
:10069000892B29F00E94000081110C94000008951C
:1006A0008150823108F05AC0E82FF0E08827E45AE0
:1006B000FC4F8F4F0C94100E7C0380036E03740369
:1006C0007803AE03830389038D03930397039B038E
:1006D000A103A503AE03A903AF03B3038091800078
:1006E0008F77809380000895809180008F7DF9CF6F
:1006F00080918000877FF5CF84B58F7784BD089582
:1007000084B58F7DFBCF8091B0008F778093B00050
:1007100008958091B0008F7DF9CF809190008F7700
:10072000809390000895809190008F7DF9CF809103
:100730009000877FF5CF8091A0008F778093A000F5
:1007400008958091A0008F7DF9CF8091A000877FD0
:10075000F5CF809120018F778093200108958091BB
:1007600020018F7DF9CF80912001877FF5CFCF9336
:10077000DF93282F30E0F901E25AFD4F8491F9010F
:10078000E85EFD4FD491F901EE52FE4FC491CC23A7
:10079000A1F081110E945003EC2FF0E0EE0FFF1F3B
:1007A000E854FE4FA591B491EC91ED2381E090E0E7
:1007B00009F480E0DF91CF91089580E090E0FACFD6
:1007C000862F0C94B7031F93CF93DF93282F30E02D
:1007D000F901E25AFD4F8491F901E85EFD4FD49191
:1007E000F901EE52FE4FC491CC23A9F0162F8111CE
:1007F0000E945003EC2FF0E0EE0FFF1FE256FE4F79
:10080000A591B4918FB7F894EC91111108C0D095CF
:10081000DE23DC938FBFDF91CF911F910895DE2BF4
:10082000F8CF862F642F0C94E303CF93DF9390E0EF
:10083000FC01E85EFD4F24918E529E4FFC01849195
:100840008823C9F090E0880F991FFC01EC57FE4FF8
:10085000A591B491FC01E256FE4FC591D49161116E
:100860000DC09FB7F8948C91209582238C9388813A
:10087000282328839FBFDF91CF910895623051F4E0
:100880009FB7F8943C91822F809583238C93E881C5
:100890002E2BEFCF8FB7F894EC912E2B2C938FBF8C
:1008A000EACF862F642F0C9415043FB7F8948091FB
:1008B000030390910403A0910503B091060326B5AC
:1008C000A89B05C02F3F19F00196A11DB11D3FBF88
:1008D000BA2FA92F982F8827BC01CD01620F711D57
:1008E000811D911D42E0660F771F881F991F4A9551
:1008F000D1F708958F929F92AF92BF92CF92DF92DD
:10090000EF92FF924B015C010E9455046B017C0148
:100910000E9455046C197D098E099F09683E734039
:1009200081059105A8F321E0821A9108A108B10878
:1009300088EEC80E83E0D81EE11CF11C81149104DE
:10094000A104B10429F7FF90EF90DF90CF90BF9002
:10095000AF909F908F90089508952091DF02260F09
:100960003327331F21323105ECF420913903FC0188
:1009700090E080E0243069F082E00895A091DF02E9
:100980002191AC0141545D4FA40FB52FB11D2C93A3
:100990000196861798F38091DF02680F6093DF025B
:1009A00080E0089581E008951092390381E08093FA
:1009B00038031092130361E084E10E94E30361E0D5
:1009C00085E10E94E303E9EBF0E080818E7F808384
:1009D00080818D7F808388E48093B80085E4809354
:1009E000BC000895CF93DF9391E09093BE028823DB
:1009F000B9F0C091B800D091BA008091BC008A7B58
:100A00008093BC0060E084E10E94E30360E085E144
:100A10000E94E3030E94D404D093BA00C093B800AC
:100A2000DF91CF910895CF92DF92EF92FF920F93D3
:100A30001F93CF93DF93D091620381E0D13208F00E
:100A40009CC0C09161030E9455046B017C018091A0
:100A5000390381116CC082E08093390381E0809377
:100A600038038FEF8093370310923603D09335030A
:100A7000A1E4B3E0E5E1F3E080E0D8138DC010928B
:100A8000140380911403CC0FC82BC09314038091DE
:100A90001303813009F084C0109213030E9455049F
:100AA0006B017C01809114038093BB0080913B0318
:100AB00090913C03A0913D03B0913E03892B8A2B7A
:100AC0008B2BA1F00E94550400913B0310913C0335
:100AD00020913D0330913E036C197D098E099F09D9
:100AE000061717072807390708F442C08091BC0091
:100AF00083FDD8CF85EC8093BC000E9455046B0128
:100B00007C0180913903823009F44CC08091370315
:100B10008F3F09F469C080913703803209F466C0C1
:100B200080913703803309F463C084E026C080914C
:100B30003B0390913C03A0913D03B0913E03892B70
:100B40008A2B8B2B09F483CF0E94550400913B0321
:100B500010913C0320913D0330913E036C197D09B7
:100B60008E099F09061717072807390708F06FCF66
:100B700080913A030E94F20485E0109240031092A3
:100B8000620310923F03DF91CF911F910F91FF906D
:100B9000EF90DF90CF9008959D9191938F5F6DCFEF
:100BA00085EEA9CF80913B0390913C03A0913D033A
:100BB000B0913E03892B8A2B8B2B09F4A2CF0E9484
:100BC000550400913B0310913C0320913D0330916B
:100BD0003E036C197D098E099F0906171707280720
:100BE000390708F08ECFC4CF80E0C7CF82E0C5CFF1
:100BF00083E0C3CF0895E0910C0380910B03E817C5
:100C000030F4F0E0E256FD4F808190E008958FEFE0
:100C10009FEF089590910C0380910B032FEF3FEF0E
:100C2000981748F4E92FF0E0E256FD4F208130E0BC
:100C30009F5F90930C03C901089580910B039091DD
:100C40000C03891B990B0895CF92DF92EF92FF92CC
:100C50000F931F93CF93DF937C01CB018A012091E7
:100C60003F03222389F0EB016B01C40ED51ECC1586
:100C7000DD0569F06991D701ED91FC910190F0815A
:100C8000E02DC7011995F3CF642F0E94AD04C80170
:100C9000DF91CF911F910F91FF90EF90DF90CF9058
:100CA0000895CF93DF931F92CDB7DEB7698320916C
:100CB0003F032223F9F020916203203258F021E013
:100CC00030E0FC013383228390E080E00F90DF91DD
:100CD000CF91089580914003E82FF0E0EF5BFC4F47
:100CE000998190838F5F809340038093620381E0BA
:100CF00090E0ECCF61E0CE0101960E94AD04F7CF09
:100D0000682F80E094E00C945106FC01248131E0CE
:100D100030933F03209361031092400310926203CB
:100D20008385862B90E00E9480060C94130590E04A
:100D300080E008950F931F93CF938C01C62F0E94DC
:100D400085066C2F6460C8010E9485066C2F6B7F3E
:100D5000C8010E94850683EC90E00197F1F7CF91DE
:100D60001F910F9108950F931F93CF93DF938C01E1
:100D7000D62FC42F607F642B0E949A0680E1D89FF3
:100D8000B00111246C2BC801DF91CF911F910F91FD
:100D90000C949A06CF93DF9300D000D01F921F923D
:100DA000CDB7DEB798E0E9E1F2E0DE0111960190FF
:100DB0000D929A95E1F790911404961708F46FEF4D
:100DC000262F30E0220F331F41E050E04C0F5D1F13
:100DD000240F351FF9016081680F606840E08CE0E6
:100DE00094E028960FB6F894DEBF0FBECDBFDF911A
:100DF000CF910C94B30640E061E08CE094E00E9457
:100E0000B3068BE39FE10197F1F7089541E00E945B
:100E1000B30681E090E00895FC0101900020E9F71D
:100E20003197AF01481B590BBC018CE094E00C9446
:100E30001C020F931F93CF93DF93EC01888199815C
:100E4000009759F02A813B812617370730F081E05F
:100E5000DF91CF911F910F9108958B016F5F7F4FAD
:100E60000E943D0F009759F0998388831B830A8362
:100E70002C813D81232B59F7FC011082E8CF80E0C3
:100E8000E7CF70E060E088E194E00E9419072091CC
:100E9000180430911904811113C02115310519F07E
:100EA000C9010E94B40E10921904109218041092F5
:100EB0001D0410921C0410921B0410921A04089531
:100EC00010921D0410921C0466E772E0C9010C9494
:100ED000301085ED8093BC0080913B0390913C03E2
:100EE000A0913D03B0913E030796A11DB11D23E0E3
:100EF000B695A795979587952A95D1F72091BC002F
:100F000024FD03C010923903089540913B03509192
:100F10003C0360913D0370913E03452B462B472BCC
:100F200069F30097A105B10541F025E32A95F1F792
:100F300000000197A109B109E1CF80913A030C9417
:100F4000F2041F920F920FB60F9211240BB60F925C
:100F50002F933F934F935F936F937F938F939F93C1
:100F6000AF93BF93EF93FF9383E693E00E949002C9
:100F7000FF91EF91BF91AF919F918F917F916F9171
:100F80005F914F913F912F910F900BBE0F900FBE2D
:100F90000F901F9018951F920F920FB60F92112469
:100FA0000BB60F922F938F939F93EF93FF93E09144
:100FB0007303F09174038081E0917903F0917A03D7
:100FC00082FD1DC0908180917C038F5F8F73209183
:100FD0007D03821741F0E0917C03F0E0ED59FC4F76
:100FE000958F80937C03FF91EF919F918F912F912B
:100FF0000F900BBE0F900FBE0F901F901895808121
:10100000F2CF1F920F920FB60F9211242F933F939E
:101010008F939F93AF93BF9380910F039091100391
:10102000A0911103B09112033091020323E0230F2A
:101030002D3758F50196A11DB11D20930203809311
:101040000F0390931003A0931103B09312038091A8
:10105000030390910403A0910503B0910603019648
:10106000A11DB11D8093030390930403A093050376
:10107000B0930603BF91AF919F918F913F912F91B4
:101080000F900FBE0F901F90189526E8230F029621
:10109000A11DB11DD2CF1F920F920FB60F92112436
:1010A0000BB60F922F933F934F935F936F937F9362
:1010B0008F939F93AF93BF93EF93FF938091B9006A
:1010C000887F803609F44DC008F040C0883209F4AA
:1010D000A9C028F5803109F49DC0C8F4882309F41B
:1010E000FBC0883009F496C0FF91EF91BF91AF919A
:1010F0009F918F917F916F915F914F913F912F9130
:101100000F900BBE0F900FBE0F901F901895883157
:1011100009F488C0803241F78093370314C08034CB
:1011200009F49DC040F48033B9F38833E9F6809325
:10113000370385ECB0C0803509F485C0883509F4E3
:1011400096C0883489F60E946907CECF883909F4A1
:101150008CC038F5883729F050F4883611F0803784
:1011600019F683E0809339031092010357C0883841
:1011700009F47BC0803919F0803809F0B5CF80912F
:101180000103803208F071C0E091010381E08E0F0D
:10119000809301038091BB00F0E0EF51FD4F80830D
:1011A0003DC0803B39F0E0F4803A09F479C0883AD8
:1011B00009F09ACF84E0809339031092E0021092F4
:1011C000DF02E0910703F091080319958091DF0297
:1011D00081110FC081E08093DF021092BF0209C02D
:1011E000803C09F4A6CF883C09F4A3CF883B09F0E2
:1011F0007BCFE091E00281E08E0F8093E002F0E08F
:10120000E154FD4F80818093BB009091E00280917A
:10121000DF0229C0809114038093BB0085EC80938A
:10122000BC0062CF9091360380913503981758F532
:10123000E091360381E08E0F80933603F0E0EB5EA1
:10124000FC4F8081E9CFE091360381E08E0F8093DF
:1012500036038091BB00F0E0EB5EFC4F8083909101
:101260003603809135039817C8F285E8D8CFE0910E
:10127000360381E08E0F809336038091BB00F0E04F
:10128000EB5EFC4F80838091380381115CCF81E05D
:101290008093130384EA8093BC001092390324CF17
:1012A00085EC8093BC001092390380910103803259
:1012B00030F4E0910103F0E0EF51FD4F10826091B6
:1012C000010370E0E0910903F0910A0381EE92E0DE
:1012D00019951092010308CF1092370334CFEF9283
:1012E000FF920F931F93CF93DF93EC017B01198241
:1012F00018821B821A821D821C82FB010190002031
:10130000E9F731978F01061B170BB8010E941907E7
:1013100028813981811113C02115310519F0C901C6
:101320000E94B40E198218821D821C821B821A82AE
:10133000DF91CF911F910F91FF90EF9008951D8342
:101340000C83B701C901DF91CF911F910F91FF90DD
:10135000EF900C943010109266031092650388EEA3
:1013600093E0A0E0B0E08093670390936803A093BC
:101370006903B0936A0325E232E03093640320935B
:10138000630325EC30E03093700320936F0324EC6B
:1013900030E0309372032093710320EC30E03093FF
:1013A00074032093730321EC30E030937603209391
:1013B000750322EC30E0309378032093770326EC1A
:1013C00030E030937A032093790310927C031092DB
:1013D0007D0310927E0310927F03109203041092FB
:1013E00002048093040490930504A0930604B09330
:1013F000070487E392E09093010480930004109225
:10140000260410922A041092290410922B0485E5D8
:1014100092E09093250480932404E0E4F4E01082A9
:10142000148213821582369684E0EC37F807B9F7F8
:1014300083E092E0909387048093860480E092E0BA
:10144000909389048093880484E080938A0483E0E5
:1014500080938B0487E092E09093850480938404CA
:101460008AE090E090938D0480938C0484EF91E067
:1014700090938F0480938E041092920410929104A2
:1014800010928004109281041092820410928304BE
:10149000109290046BE572E08EE194E00E946F0977
:1014A00066E772E088E194E00E946F0910920F04F1
:1014B00010920E0489E492E090930D0480930C0442
:1014C00080E28093100480E18093150482E0809391
:1014D0001604109217040895CF93DF931F921F9262
:1014E000CDB7DEB7789484B5826084BD84B5816061
:1014F00084BD85B5826085BD85B5816085BD8091DF
:101500006E00816080936E00109281008091810056
:10151000826080938100809181008160809381004E
:10152000809180008160809380008091B100846010
:101530008093B1008091B00081608093B000809171
:1015400091008260809391008091910081608093EE
:101550009100809190008160809390008091A10023
:1015600082608093A1008091A10081608093A1009E
:101570008091A00081608093A00080912101826011
:1015800080932101809121018160809321018091CC
:10159000200181608093200180917A008460809393
:1015A0007A0080917A00826080937A0080917A003C
:1015B000816080937A0080917A00806880937A00BD
:1015C0001092C10010920C0310920B031092400372
:1015D000109262030E94D4048AE192E0909308037F
:1015E000809307038BE192E090930A0380930903B1
:1015F0001092110480911604823018F098E09093B4
:1016000011048093140462E370E080E090E00E9493
:101610007A04609117048CE094E00E94850668EEDD
:1016200073E080E090E00E947A0460E38CE094E054
:101630000E949A060BE416E4C8010197F1F760E3F3
:101640008CE094E00E949A06C8010197F1F760E3EC
:101650008CE094E00E949A0683E592E00197F1F70E
:1016600060E28CE094E00E949A066091110460624E
:1016700040E08CE094E00E94B30684E08093120482
:1016800040E06CE08CE094E00E94B3060E94FB0610
:1016900012E01093130440E066E08CE094E00E94B6
:1016A000B30640E062E08CE094E00E94B3068BE376
:1016B0009FE10197F1F70E94FB0688E080931704F1
:1016C00060E08CE094E00E94850660E082E00E9489
:1016D000CA0682E692E00E940C0761E082E00E9466
:1016E000CA068DE692E00E940C0710920C0310923D
:1016F0000B0310924003109262030E94D4048AE10B
:1017000092E090930803809307038BE192E090931B
:101710000A0380930903E0917303F091740310832B
:10172000E0916F03F09170031082E0917103F091EA
:1017300072038FEC808310927B03E0917703F0912A
:10174000780386E08083E0917503F09176038081D1
:1017500080618083E0917503F091760380818860D9
:101760008083E0917503F0917603808180688083A7
:10177000E0917503F091760380818F7D80839924B9
:101780009394412C512C3201439447E1842E909242
:1017900090048FB7F89440910F035091100360911B
:1017A0001103709112038FBF809180049091810486
:1017B000A0918204B0918304481B590B6A0B7B0BE8
:1017C00080918C0490918D04B0E0A0E0841795077F
:1017D000A607B70708F019C110E080918A0418170E
:1017E00060F4E0918604F0918704E10FF11D62E05E
:1017F00080810E9415041F5FF0CF312C80918B04F3
:10180000381608F061C0E32CF12CE0918804F091C7
:101810008904EE0DFF1D61E080810E941504E091B6
:101820008804F0918904EE0DFF1D60E080810E9424
:10183000E303D301C201032C04C0880F991FAA1F20
:10184000BB1F0A94D2F75C016C01C094D094212C88
:1018500080918A04281608F5022D10E0E091860494
:10186000F0918704E00FF11F80810E94B7030C5FA5
:101870001F4F000F111FF801EC5DFB4F892B41F446
:10188000808191818A299B29918380832394E0CF51
:10189000808191818C219D21F7CFE0918804F09186
:1018A0008904EE0DFF1D61E080810E94E3038091B9
:1018B000880490918904E80EF91E60E0F7018081A8
:1018C0000E94150433949ACF94E2E92E94E0F92E05
:1018D0008701F801878D90A1892B31F4148E8FEF49
:1018E0009FEF968F858F11A20A5F1F4FE0E6F4E00D
:1018F000E017F10771F7D12C80918A04D81608F00F
:1019000053C0C12CAD2CB12CAA0CBB1CC501845DED
:101910009B4F5C0120918B04C21608F043C0F50177
:10192000608171810C2C02C0769567950A94E2F76C
:10193000D29E900111242C0D311DE4E2F4E080E0F0
:10194000458D568D2417350709F4F3C08F5F369601
:101950008A30B1F760FF24C0E4E2F4E090E080E078
:10196000448D411118C0E0918404F0918504E20F88
:10197000F31F408156E0589FF001599FF00D11244C
:10198000EC5DFB4F448F368F258F10A2178E61E0E0
:101990000E94AA0105C0019636968A30910501F78A
:1019A000C394B8CFD394A8CF80E0F70191A191114F
:1019B000892FF6E0EF0EF11CE016F106B1F79FB7A4
:1019C000F89440910F0350911003609111037091AE
:1019D00012039FBF4093800450938104609382045C
:1019E00070938304882389F080914504882369F0EB
:1019F0008091430490914404019739F4F09040049D
:101A0000F11006C00E941F03C2CE10929004FACFBC
:101A100000911C0410911D045AE2F51609F48BC0C4
:101A2000F9821A820F5F1F4FB80188E194E00E948B
:101A30001907882399F02091180430911904809196
:101A40001C0490911D04BE016F5F7F4F820F931F96
:101A50000E94301010931D0400931C0485E792E04F
:101A60000E940C0780910D0390910E0301969093B4
:101A70000E0380930D0383E2F812C4CF68EC70E08C
:101A800080E090E00E947A0490923F03809261038C
:101A9000109240031092620383E290E00E9480065D
:101AA0000E94130564EF71E080E090E00E947A04E8
:101AB0000E94FB0660E082E00E94CA0682E692E095
:101AC0000E940C0761E082E00E94CA068DE692E067
:101AD0000E940C0768EC70E080E090E00E947A04BD
:101AE00090923F0380926103109240031092620330
:101AF00083E290E00E9480060E94130564EF71E08B
:101B000080E090E079C00E9427103AC00E9441070F
:101B10000E94FB0660E080E00E94CA0689E892E02D
:101B20000E940C0761E082E00E94CA060E94410701
:101B300059C061702DCF8091220490912304081721
:101B4000190721F780911E0490911F0460911804D9
:101B500070911904009749F061157105A1F6012BE8
:101B600089F0FC01808190E00BC06115710551F096
:101B7000012B41F0FB01808190E0919581959109C5
:101B8000892B21F60E9441070E94FB0660E080E05D
:101B90000E94CA0687E792E00E940C0761E080E09D
:101BA0000E94CA0682E892E00E940C070E94410748
:101BB00068EC70E080E090E00E947A0490923F032D
:101BC0008092610310924003109262038AE290E0D7
:101BD0000E9480060E9413056CE271E080E090E0B4
:101BE0000E947A040E94410710920E0310920D0386
:101BF00064E670E080E090E00E947A0403CF809178
:101C0000180490911904009711F00E94B40E80916D
:101C10001E0490911F04009711F00C94B40E0895C7
:101C2000EE0FFF1F881F8BBF0790F691E02D1994D0
:101C30000F931F93CF93DF938230910510F482E0CE
:101C400090E0E0919504F091960430E020E0B0E05F
:101C5000A0E0309799F42115310509F44AC0281BFA
:101C6000390B24303105D8F58A819B8161157105C6
:101C700089F1FB0193838283FE0111C04081518170
:101C80000281138148175907E0F04817590799F462
:101C9000109761F012960C93129713961C9332963C
:101CA000CF01DF91CF911F910F910895009395047B
:101CB00010939604F4CF2115310551F042175307C4
:101CC00038F0A901DB019A01BD01DF01F801C1CFA4
:101CD000EF01F9CF9093960480939504CDCFFE0148
:101CE000E20FF31F819391932250310939832883A6
:101CF000D7CF2091930430919404232B41F4209169
:101D0000150230911602309394042093930420918D
:101D10001302309114022115310541F42DB73EB75D
:101D20004091170250911802241B350BE091930447
:101D3000F0919404E217F307A0F42E1B3F0B281731
:101D4000390778F0AC014E5F5F4F2417350748F034
:101D50004E0F5F1F5093940440939304819391938B
:101D60009FCFF0E0E0E09CCFCF93DF930097E9F0C6
:101D7000FC01329713821282A0919504B0919604CF
:101D8000ED0130E020E01097A1F420813181820F35
:101D9000931F20919304309194042817390709F078
:101DA00061C0F0939404E0939304DF91CF91089580
:101DB000EA01CE17DF07E8F54A815B819E014115F4
:101DC0005105B1F7E901FB83EA8349915991C40FA9
:101DD000D51FEC17FD0761F4808191810296840F75
:101DE000951FE90199838883828193819B838A83EC
:101DF000F0E0E0E012968D919C9113970097B9F571
:101E00002D913C911197CD010296820F931F209145
:101E10009304309194042817390739F6309751F517
:101E20001092960410929504B0939404A093930496
:101E3000BCCFD383C28340815181840F951FC817C3
:101E4000D90761F44E5F5F4F88819981480F591F10
:101E5000518340838A819B8193838283211531053D
:101E600009F0B0CFF0939604E09395049ECFFD0166
:101E7000DC01C0CF13821282D7CF4F925F926F9254
:101E80007F928F929F92AF92BF92CF92DF92EF920A
:101E9000FF920F931F93CF93DF938C01009799F4D8
:101EA000CB01DF91CF911F910F91FF90EF90DF90C9
:101EB000CF90BF90AF909F908F907F906F905F90EA
:101EC0004F900C94180EFC01E60FF71F9C01225056
:101ED0003109E217F30708F4AEC0D901CD91DC91C6
:101EE0001197C617D70720F1C530D10578F0CE017C
:101EF00004978617970750F0C61BD70B2297C193FC
:101F0000D1936D937C93CF010E94B40EC801DF91F1
:101F1000CF911F910F91FF90EF90DF90CF90BF90E6
:101F2000AF909F908F907F906F905F904F900895AB
:101F30005B01AC1ABD0A4C018C0E9D1EA09195044C
:101F4000B0919604512C412CF12CE12C109731F5D5
:101F500080919304909194048815990509F05CC0D0
:101F60004616570608F058C080911302909114024B
:101F7000009741F48DB79EB7409117025091180217
:101F8000841B950BE817F90708F055C0F0939404EB
:101F9000E0939304F90171836083B8CF8D919C9194
:101FA000119712966C90129713967C901397A81520
:101FB000B90559F56C0142E0C40ED11CCA14DB040A
:101FC00020F1AC014A195B09DA011296159780F0ED
:101FD0006282738251834083D9016D937C93E114B3
:101FE000F10471F0D7011396FC93EE9312978ECF04
:101FF00022968C0F9D1FF90191838083F301EFCF0F
:10200000F0939604E093950481CF4816590608F49E
:102010002C017D01D3019ACFCB010E94180E7C01C7
:10202000009749F0AE01B8010E941E10C8010E943D
:10203000B40E87016BCF10E000E068CFFB01DC013C
:1020400002C001900D9241505040D8F70895FB0115
:10205000DC018D91019080190110D9F3990B08953D
:10206000FB01DC0101900D920020E1F7089511E0E1
:10207000C3E5D1E000E006C0802FFE010E94100EF3
:102080002196011DC435D10780E00807A9F7F8940F
:02209000FFCF80
:10209200080706050403023132333435363738393E
:1020A2002A302300009704800000004000140054EE
:1020B2000000000000B2021C024902FF027A02582C
:1020C200026C0200000000510624069706FA051D64
:1020D200060A06FB050000000006071C029706AC74
:1020E200040000000051041104E0033230323130A8
:1020F20034004341534120414359453100412D476A
:10210200342D5332002A004249454E56454E494429
:102112004F00412043415341004552524F52204506
:0E2122004E20436F6E74726173656E61000033
:00000001FF
